{
  "_format": "hh-sol-artifact-1",
  "contractName": "XenEth",
  "sourceName": "contracts/XenEth.sol",
  "abi": [
    {
      "inputs": [],
      "stateMutability": "nonpayable",
      "type": "constructor"
    },
    {
      "anonymous": false,
      "inputs": [
        {
          "indexed": true,
          "internalType": "string",
          "name": "recipientId",
          "type": "string"
        },
        {
          "indexed": true,
          "internalType": "address",
          "name": "donor",
          "type": "address"
        },
        {
          "indexed": false,
          "internalType": "uint256",
          "name": "amount",
          "type": "uint256"
        },
        {
          "indexed": false,
          "internalType": "string",
          "name": "message",
          "type": "string"
        },
        {
          "indexed": false,
          "internalType": "string",
          "name": "donorName",
          "type": "string"
        }
      ],
      "name": "DonationReceived",
      "type": "event"
    },
    {
      "inputs": [
        {
          "internalType": "address",
          "name": "",
          "type": "address"
        }
      ],
      "name": "addressToName",
      "outputs": [
        {
          "internalType": "string",
          "name": "",
          "type": "string"
        }
      ],
      "stateMutability": "view",
      "type": "function"
    },
    {
      "inputs": [],
      "name": "admin",
      "outputs": [
        {
          "internalType": "address",
          "name": "",
          "type": "address"
        }
      ],
      "stateMutability": "view",
      "type": "function"
    },
    {
      "inputs": [
        {
          "internalType": "address",
          "name": "",
          "type": "address"
        }
      ],
      "name": "balances",
      "outputs": [
        {
          "internalType": "uint256",
          "name": "",
          "type": "uint256"
        }
      ],
      "stateMutability": "view",
      "type": "function"
    },
    {
      "inputs": [
        {
          "internalType": "string",
          "name": "oldName",
          "type": "string"
        },
        {
          "internalType": "string",
          "name": "newName",
          "type": "string"
        }
      ],
      "name": "changeUserName",
      "outputs": [],
      "stateMutability": "nonpayable",
      "type": "function"
    },
    {
      "inputs": [
        {
          "internalType": "string",
          "name": "recipientId",
          "type": "string"
        },
        {
          "internalType": "string",
          "name": "message",
          "type": "string"
        },
        {
          "internalType": "string",
          "name": "donorName",
          "type": "string"
        }
      ],
      "name": "donate",
      "outputs": [],
      "stateMutability": "payable",
      "type": "function"
    },
    {
      "inputs": [
        {
          "internalType": "string",
          "name": "",
          "type": "string"
        },
        {
          "internalType": "uint256",
          "name": "",
          "type": "uint256"
        }
      ],
      "name": "donations",
      "outputs": [
        {
          "internalType": "address",
          "name": "donor",
          "type": "address"
        },
        {
          "internalType": "uint256",
          "name": "amount",
          "type": "uint256"
        },
        {
          "internalType": "string",
          "name": "message",
          "type": "string"
        },
        {
          "internalType": "string",
          "name": "donorName",
          "type": "string"
        }
      ],
      "stateMutability": "view",
      "type": "function"
    },
    {
      "inputs": [
        {
          "internalType": "address",
          "name": "userAddress",
          "type": "address"
        }
      ],
      "name": "getDonationsByAddress",
      "outputs": [
        {
          "components": [
            {
              "internalType": "address",
              "name": "donor",
              "type": "address"
            },
            {
              "internalType": "uint256",
              "name": "amount",
              "type": "uint256"
            },
            {
              "internalType": "string",
              "name": "message",
              "type": "string"
            },
            {
              "internalType": "string",
              "name": "donorName",
              "type": "string"
            }
          ],
          "internalType": "struct XenEth.Donation[]",
          "name": "",
          "type": "tuple[]"
        }
      ],
      "stateMutability": "view",
      "type": "function"
    },
    {
      "inputs": [
        {
          "internalType": "string",
          "name": "recipientId",
          "type": "string"
        }
      ],
      "name": "getDonationsByRecipientId",
      "outputs": [
        {
          "components": [
            {
              "internalType": "address",
              "name": "donor",
              "type": "address"
            },
            {
              "internalType": "uint256",
              "name": "amount",
              "type": "uint256"
            },
            {
              "internalType": "string",
              "name": "message",
              "type": "string"
            },
            {
              "internalType": "string",
              "name": "donorName",
              "type": "string"
            }
          ],
          "internalType": "struct XenEth.Donation[]",
          "name": "",
          "type": "tuple[]"
        }
      ],
      "stateMutability": "view",
      "type": "function"
    },
    {
      "inputs": [],
      "name": "getUserDonationStats",
      "outputs": [
        {
          "internalType": "uint256",
          "name": "total",
          "type": "uint256"
        },
        {
          "internalType": "uint256",
          "name": "available",
          "type": "uint256"
        },
        {
          "internalType": "uint256",
          "name": "withdrawn",
          "type": "uint256"
        }
      ],
      "stateMutability": "view",
      "type": "function"
    },
    {
      "inputs": [],
      "name": "getUserInfo",
      "outputs": [
        {
          "internalType": "string",
          "name": "",
          "type": "string"
        }
      ],
      "stateMutability": "view",
      "type": "function"
    },
    {
      "inputs": [
        {
          "internalType": "string",
          "name": "name",
          "type": "string"
        }
      ],
      "name": "isNameRegistered",
      "outputs": [
        {
          "internalType": "bool",
          "name": "",
          "type": "bool"
        }
      ],
      "stateMutability": "view",
      "type": "function"
    },
    {
      "inputs": [
        {
          "internalType": "string",
          "name": "name",
          "type": "string"
        }
      ],
      "name": "registerUser",
      "outputs": [],
      "stateMutability": "nonpayable",
      "type": "function"
    },
    {
      "inputs": [
        {
          "internalType": "string",
          "name": "",
          "type": "string"
        }
      ],
      "name": "totalDonations",
      "outputs": [
        {
          "internalType": "uint256",
          "name": "",
          "type": "uint256"
        }
      ],
      "stateMutability": "view",
      "type": "function"
    },
    {
      "inputs": [
        {
          "internalType": "string",
          "name": "",
          "type": "string"
        }
      ],
      "name": "users",
      "outputs": [
        {
          "internalType": "string",
          "name": "name",
          "type": "string"
        },
        {
          "internalType": "address",
          "name": "userAddress",
          "type": "address"
        }
      ],
      "stateMutability": "view",
      "type": "function"
    },
    {
      "inputs": [],
      "name": "withdraw",
      "outputs": [],
      "stateMutability": "nonpayable",
      "type": "function"
    },
    {
      "inputs": [],
      "name": "withdrawFees",
      "outputs": [],
      "stateMutability": "nonpayable",
      "type": "function"
    },
    {
      "inputs": [
        {
          "internalType": "string",
          "name": "",
          "type": "string"
        }
      ],
      "name": "withdrawnDonations",
      "outputs": [
        {
          "internalType": "uint256",
          "name": "",
          "type": "uint256"
        }
      ],
      "stateMutability": "view",
      "type": "function"
    },
    {
      "stateMutability": "payable",
      "type": "receive"
    }
  ],
  "bytecode": "0x608060405234801561001057600080fd5b50336000806101000a81548173ffffffffffffffffffffffffffffffffffffffff021916908373ffffffffffffffffffffffffffffffffffffffff160217905550613385806100606000396000f3fe6080604052600436106101025760003560e01c8063689e1c03116100955780639a03f55b116100645780639a03f55b146103bd5780639c9c2a0f146103fa578063bfdf949714610437578063e2a04b6214610464578063f851a440146104a15761017f565b8063689e1c03146102fd578063704f1b941461033b5780638bf206491461036457806394ae93b8146103805761017f565b806346318fd2116100d157806346318fd214610255578063476343ee1461027e5780634a7dc359146102955780635d8d1585146102d25761017f565b80631c1398d21461018457806327e235e3146101c45780633ccfd60b146102015780633ebed174146102185761017f565b3661017f5734600360008060009054906101000a900473ffffffffffffffffffffffffffffffffffffffff1673ffffffffffffffffffffffffffffffffffffffff1673ffffffffffffffffffffffffffffffffffffffff16815260200190815260200160002060008282546101779190611fee565b925050819055005b600080fd5b34801561019057600080fd5b506101ab60048036038101906101a691906121a8565b6104cc565b6040516101bb94939291906122d3565b60405180910390f35b3480156101d057600080fd5b506101eb60048036038101906101e69190612352565b61065f565b6040516101f8919061237f565b60405180910390f35b34801561020d57600080fd5b50610216610677565b005b34801561022457600080fd5b5061023f600480360381019061023a919061239a565b6108f5565b60405161024c919061237f565b60405180910390f35b34801561026157600080fd5b5061027c600480360381019061027791906123e3565b610923565b005b34801561028a57600080fd5b50610293610c9c565b005b3480156102a157600080fd5b506102bc60048036038101906102b7919061239a565b610f09565b6040516102c9919061237f565b60405180910390f35b3480156102de57600080fd5b506102e7610f37565b6040516102f4919061245b565b60405180910390f35b34801561030957600080fd5b50610324600480360381019061031f919061239a565b611026565b60405161033292919061247d565b60405180910390f35b34801561034757600080fd5b50610362600480360381019061035d919061239a565b611108565b005b61037e600480360381019061037991906124ad565b61133f565b005b34801561038c57600080fd5b506103a760048036038101906103a2919061239a565b611763565b6040516103b4919061256f565b60405180910390f35b3480156103c957600080fd5b506103e460048036038101906103df919061239a565b6117dd565b6040516103f1919061271e565b60405180910390f35b34801561040657600080fd5b50610421600480360381019061041c9190612352565b611a28565b60405161042e919061271e565b60405180910390f35b34801561044357600080fd5b5061044c611d3a565b60405161045b93929190612740565b60405180910390f35b34801561047057600080fd5b5061048b60048036038101906104869190612352565b611e94565b604051610498919061245b565b60405180910390f35b3480156104ad57600080fd5b506104b6611f34565b6040516104c39190612777565b60405180910390f35b60048280516020810182018051848252602083016020850120818352809550505050505081815481106104fe57600080fd5b9060005260206000209060040201600091509150508060000160009054906101000a900473ffffffffffffffffffffffffffffffffffffffff169080600101549080600201805461054e906127c1565b80601f016020809104026020016040519081016040528092919081815260200182805461057a906127c1565b80156105c75780601f1061059c576101008083540402835291602001916105c7565b820191906000526020600020905b8154815290600101906020018083116105aa57829003601f168201915b5050505050908060030180546105dc906127c1565b80601f0160208091040260200160405190810160405280929190818152602001828054610608906127c1565b80156106555780601f1061062a57610100808354040283529160200191610655565b820191906000526020600020905b81548152906001019060200180831161063857829003601f168201915b5050505050905084565b60036020528060005260406000206000915090505481565b6000600360003373ffffffffffffffffffffffffffffffffffffffff1673ffffffffffffffffffffffffffffffffffffffff168152602001908152602001600020549050600081116106fe576040517f08c379a00000000000000000000000000000000000000000000000000000000081526004016106f59061283e565b60405180910390fd5b6000600260003373ffffffffffffffffffffffffffffffffffffffff1673ffffffffffffffffffffffffffffffffffffffff168152602001908152602001600020805461074a906127c1565b80601f0160208091040260200160405190810160405280929190818152602001828054610776906127c1565b80156107c35780601f10610798576101008083540402835291602001916107c3565b820191906000526020600020905b8154815290600101906020018083116107a657829003601f168201915b50505050509050816006826040516107db919061289a565b908152602001604051809103902060008282546107f89190611fee565b925050819055506000600360003373ffffffffffffffffffffffffffffffffffffffff1673ffffffffffffffffffffffffffffffffffffffff1681526020019081526020016000208190555060003373ffffffffffffffffffffffffffffffffffffffff168360405161086a906128e2565b60006040518083038185875af1925050503d80600081146108a7576040519150601f19603f3d011682016040523d82523d6000602084013e6108ac565b606091505b50509050806108f0576040517f08c379a00000000000000000000000000000000000000000000000000000000081526004016108e790612943565b60405180910390fd5b505050565b6006818051602081018201805184825260208301602085012081835280955050505050506000915090505481565b813373ffffffffffffffffffffffffffffffffffffffff1660018260405161094b919061289a565b908152602001604051809103902060010160009054906101000a900473ffffffffffffffffffffffffffffffffffffffff1673ffffffffffffffffffffffffffffffffffffffff16146109d3576040517f08c379a00000000000000000000000000000000000000000000000000000000081526004016109ca906129d5565b60405180910390fd5b6000825111610a17576040517f08c379a0000000000000000000000000000000000000000000000000000000008152600401610a0e90612a41565b60405180910390fd5b600073ffffffffffffffffffffffffffffffffffffffff16600183604051610a3f919061289a565b908152602001604051809103902060010160009054906101000a900473ffffffffffffffffffffffffffffffffffffffff1673ffffffffffffffffffffffffffffffffffffffff1614610ac7576040517f08c379a0000000000000000000000000000000000000000000000000000000008152600401610abe90612aad565b60405180910390fd5b600183604051610ad7919061289a565b9081526020016040518091039020600183604051610af5919061289a565b908152602001604051809103902060008201816000019081610b179190612c8f565b506001820160009054906101000a900473ffffffffffffffffffffffffffffffffffffffff168160010160006101000a81548173ffffffffffffffffffffffffffffffffffffffff021916908373ffffffffffffffffffffffffffffffffffffffff16021790555090505081600183604051610b93919061289a565b90815260200160405180910390206000019081610bb09190612d77565b508160026000600186604051610bc6919061289a565b908152602001604051809103902060010160009054906101000a900473ffffffffffffffffffffffffffffffffffffffff1673ffffffffffffffffffffffffffffffffffffffff1673ffffffffffffffffffffffffffffffffffffffff1681526020019081526020016000209081610c3e9190612d77565b50600183604051610c4f919061289a565b908152602001604051809103902060008082016000610c6e9190611f58565b6001820160006101000a81549073ffffffffffffffffffffffffffffffffffffffff02191690555050505050565b60008054906101000a900473ffffffffffffffffffffffffffffffffffffffff1673ffffffffffffffffffffffffffffffffffffffff163373ffffffffffffffffffffffffffffffffffffffff1614610d2a576040517f08c379a0000000000000000000000000000000000000000000000000000000008152600401610d2190612ebb565b60405180910390fd5b6000600360008060009054906101000a900473ffffffffffffffffffffffffffffffffffffffff1673ffffffffffffffffffffffffffffffffffffffff1673ffffffffffffffffffffffffffffffffffffffff16815260200190815260200160002054905060008111610dd2576040517f08c379a0000000000000000000000000000000000000000000000000000000008152600401610dc99061283e565b60405180910390fd5b6000600360008060009054906101000a900473ffffffffffffffffffffffffffffffffffffffff1673ffffffffffffffffffffffffffffffffffffffff1673ffffffffffffffffffffffffffffffffffffffff1681526020019081526020016000208190555060008060009054906101000a900473ffffffffffffffffffffffffffffffffffffffff1673ffffffffffffffffffffffffffffffffffffffff1682604051610e7f906128e2565b60006040518083038185875af1925050503d8060008114610ebc576040519150601f19603f3d011682016040523d82523d6000602084013e610ec1565b606091505b5050905080610f05576040517f08c379a0000000000000000000000000000000000000000000000000000000008152600401610efc90612943565b60405180910390fd5b5050565b6005818051602081018201805184825260208301602085012081835280955050505050506000915090505481565b60606001600260003373ffffffffffffffffffffffffffffffffffffffff1673ffffffffffffffffffffffffffffffffffffffff168152602001908152602001600020604051610f879190612f5e565b90815260200160405180910390206000018054610fa3906127c1565b80601f0160208091040260200160405190810160405280929190818152602001828054610fcf906127c1565b801561101c5780601f10610ff15761010080835404028352916020019161101c565b820191906000526020600020905b815481529060010190602001808311610fff57829003601f168201915b5050505050905090565b60018180516020810182018051848252602083016020850120818352809550505050505060009150905080600001805461105f906127c1565b80601f016020809104026020016040519081016040528092919081815260200182805461108b906127c1565b80156110d85780601f106110ad576101008083540402835291602001916110d8565b820191906000526020600020905b8154815290600101906020018083116110bb57829003601f168201915b5050505050908060010160009054906101000a900473ffffffffffffffffffffffffffffffffffffffff16905082565b600073ffffffffffffffffffffffffffffffffffffffff16600182604051611130919061289a565b908152602001604051809103902060010160009054906101000a900473ffffffffffffffffffffffffffffffffffffffff1673ffffffffffffffffffffffffffffffffffffffff16146111b8576040517f08c379a00000000000000000000000000000000000000000000000000000000081526004016111af90612fc1565b60405180910390fd5b6000600260003373ffffffffffffffffffffffffffffffffffffffff1673ffffffffffffffffffffffffffffffffffffffff1681526020019081526020016000208054611204906127c1565b905014611246576040517f08c379a000000000000000000000000000000000000000000000000000000000815260040161123d90613053565b60405180910390fd5b60405180604001604052808281526020013373ffffffffffffffffffffffffffffffffffffffff16815250600182604051611281919061289a565b908152602001604051809103902060008201518160000190816112a49190612d77565b5060208201518160010160006101000a81548173ffffffffffffffffffffffffffffffffffffffff021916908373ffffffffffffffffffffffffffffffffffffffff16021790555090505080600260003373ffffffffffffffffffffffffffffffffffffffff1673ffffffffffffffffffffffffffffffffffffffff168152602001908152602001600020908161133b9190612d77565b5050565b600073ffffffffffffffffffffffffffffffffffffffff16600184604051611367919061289a565b908152602001604051809103902060010160009054906101000a900473ffffffffffffffffffffffffffffffffffffffff1673ffffffffffffffffffffffffffffffffffffffff16036113ef576040517f08c379a00000000000000000000000000000000000000000000000000000000081526004016113e6906130bf565b60405180910390fd5b60003411611432576040517f08c379a000000000000000000000000000000000000000000000000000000000815260040161142990613151565b60405180910390fd5b60006611f0f2c01da0003461144791906131a0565b14611487576040517f08c379a000000000000000000000000000000000000000000000000000000000815260040161147e90613243565b60405180910390fd5b600060656001346114989190613263565b6114a291906132a5565b9050600081346114b291906132d6565b905081600360008060009054906101000a900473ffffffffffffffffffffffffffffffffffffffff1673ffffffffffffffffffffffffffffffffffffffff1673ffffffffffffffffffffffffffffffffffffffff16815260200190815260200160002060008282546115249190611fee565b925050819055508060036000600188604051611540919061289a565b908152602001604051809103902060010160009054906101000a900473ffffffffffffffffffffffffffffffffffffffff1673ffffffffffffffffffffffffffffffffffffffff1673ffffffffffffffffffffffffffffffffffffffff16815260200190815260200160002060008282546115bb9190611fee565b925050819055506004856040516115d2919061289a565b908152602001604051809103902060405180608001604052803373ffffffffffffffffffffffffffffffffffffffff16815260200183815260200186815260200185815250908060018154018082558091505060019003906000526020600020906004020160009091909190915060008201518160000160006101000a81548173ffffffffffffffffffffffffffffffffffffffff021916908373ffffffffffffffffffffffffffffffffffffffff1602179055506020820151816001015560408201518160020190816116a69190612d77565b5060608201518160030190816116bc9190612d77565b505050806005866040516116d0919061289a565b908152602001604051809103902060008282546116ed9190611fee565b925050819055503373ffffffffffffffffffffffffffffffffffffffff1685604051611719919061289a565b60405180910390207f309b8aed41b67a26b5e8ca7ee23aad93e2da08562af749736203253fc9a326588387876040516117549392919061330a565b60405180910390a35050505050565b60008073ffffffffffffffffffffffffffffffffffffffff1660018360405161178c919061289a565b908152602001604051809103902060010160009054906101000a900473ffffffffffffffffffffffffffffffffffffffff1673ffffffffffffffffffffffffffffffffffffffff1614159050919050565b606060008290506000815111611828576040517f08c379a000000000000000000000000000000000000000000000000000000000815260040161181f906130bf565b60405180910390fd5b600481604051611838919061289a565b9081526020016040518091039020805480602002602001604051908101604052809291908181526020016000905b82821015611a1c57838290600052602060002090600402016040518060800160405290816000820160009054906101000a900473ffffffffffffffffffffffffffffffffffffffff1673ffffffffffffffffffffffffffffffffffffffff1673ffffffffffffffffffffffffffffffffffffffff168152602001600182015481526020016002820180546118f9906127c1565b80601f0160208091040260200160405190810160405280929190818152602001828054611925906127c1565b80156119725780601f1061194757610100808354040283529160200191611972565b820191906000526020600020905b81548152906001019060200180831161195557829003601f168201915b5050505050815260200160038201805461198b906127c1565b80601f01602080910402602001604051908101604052809291908181526020018280546119b7906127c1565b8015611a045780601f106119d957610100808354040283529160200191611a04565b820191906000526020600020905b8154815290600101906020018083116119e757829003601f168201915b50505050508152505081526020019060010190611866565b50505050915050919050565b60606000600260008473ffffffffffffffffffffffffffffffffffffffff1673ffffffffffffffffffffffffffffffffffffffff1681526020019081526020016000208054611a76906127c1565b80601f0160208091040260200160405190810160405280929190818152602001828054611aa2906127c1565b8015611aef5780601f10611ac457610100808354040283529160200191611aef565b820191906000526020600020905b815481529060010190602001808311611ad257829003601f168201915b505050505090506000815111611b3a576040517f08c379a0000000000000000000000000000000000000000000000000000000008152600401611b31906130bf565b60405180910390fd5b600481604051611b4a919061289a565b9081526020016040518091039020805480602002602001604051908101604052809291908181526020016000905b82821015611d2e57838290600052602060002090600402016040518060800160405290816000820160009054906101000a900473ffffffffffffffffffffffffffffffffffffffff1673ffffffffffffffffffffffffffffffffffffffff1673ffffffffffffffffffffffffffffffffffffffff16815260200160018201548152602001600282018054611c0b906127c1565b80601f0160208091040260200160405190810160405280929190818152602001828054611c37906127c1565b8015611c845780601f10611c5957610100808354040283529160200191611c84565b820191906000526020600020905b815481529060010190602001808311611c6757829003601f168201915b50505050508152602001600382018054611c9d906127c1565b80601f0160208091040260200160405190810160405280929190818152602001828054611cc9906127c1565b8015611d165780601f10611ceb57610100808354040283529160200191611d16565b820191906000526020600020905b815481529060010190602001808311611cf957829003601f168201915b50505050508152505081526020019060010190611b78565b50505050915050919050565b600080600080600260003373ffffffffffffffffffffffffffffffffffffffff1673ffffffffffffffffffffffffffffffffffffffff1681526020019081526020016000208054611d8a906127c1565b80601f0160208091040260200160405190810160405280929190818152602001828054611db6906127c1565b8015611e035780601f10611dd857610100808354040283529160200191611e03565b820191906000526020600020905b815481529060010190602001808311611de657829003601f168201915b50505050509050600581604051611e1a919061289a565b9081526020016040518091039020549350600360003373ffffffffffffffffffffffffffffffffffffffff1673ffffffffffffffffffffffffffffffffffffffff168152602001908152602001600020549250600681604051611e7d919061289a565b908152602001604051809103902054915050909192565b60026020528060005260406000206000915090508054611eb3906127c1565b80601f0160208091040260200160405190810160405280929190818152602001828054611edf906127c1565b8015611f2c5780601f10611f0157610100808354040283529160200191611f2c565b820191906000526020600020905b815481529060010190602001808311611f0f57829003601f168201915b505050505081565b60008054906101000a900473ffffffffffffffffffffffffffffffffffffffff1681565b508054611f64906127c1565b6000825580601f10611f765750611f95565b601f016020900490600052602060002090810190611f949190611f98565b5b50565b5b80821115611fb1576000816000905550600101611f99565b5090565b6000819050919050565b7f4e487b7100000000000000000000000000000000000000000000000000000000600052601160045260246000fd5b6000611ff982611fb5565b915061200483611fb5565b925082820190508082111561201c5761201b611fbf565b5b92915050565b6000604051905090565b600080fd5b600080fd5b600080fd5b600080fd5b6000601f19601f8301169050919050565b7f4e487b7100000000000000000000000000000000000000000000000000000000600052604160045260246000fd5b61208982612040565b810181811067ffffffffffffffff821117156120a8576120a7612051565b5b80604052505050565b60006120bb612022565b90506120c78282612080565b919050565b600067ffffffffffffffff8211156120e7576120e6612051565b5b6120f082612040565b9050602081019050919050565b82818337600083830152505050565b600061211f61211a846120cc565b6120b1565b90508281526020810184848401111561213b5761213a61203b565b5b6121468482856120fd565b509392505050565b600082601f83011261216357612162612036565b5b813561217384826020860161210c565b91505092915050565b61218581611fb5565b811461219057600080fd5b50565b6000813590506121a28161217c565b92915050565b600080604083850312156121bf576121be61202c565b5b600083013567ffffffffffffffff8111156121dd576121dc612031565b5b6121e98582860161214e565b92505060206121fa85828601612193565b9150509250929050565b600073ffffffffffffffffffffffffffffffffffffffff82169050919050565b600061222f82612204565b9050919050565b61223f81612224565b82525050565b61224e81611fb5565b82525050565b600081519050919050565b600082825260208201905092915050565b60005b8381101561228e578082015181840152602081019050612273565b60008484015250505050565b60006122a582612254565b6122af818561225f565b93506122bf818560208601612270565b6122c881612040565b840191505092915050565b60006080820190506122e86000830187612236565b6122f56020830186612245565b8181036040830152612307818561229a565b9050818103606083015261231b818461229a565b905095945050505050565b61232f81612224565b811461233a57600080fd5b50565b60008135905061234c81612326565b92915050565b6000602082840312156123685761236761202c565b5b60006123768482850161233d565b91505092915050565b60006020820190506123946000830184612245565b92915050565b6000602082840312156123b0576123af61202c565b5b600082013567ffffffffffffffff8111156123ce576123cd612031565b5b6123da8482850161214e565b91505092915050565b600080604083850312156123fa576123f961202c565b5b600083013567ffffffffffffffff81111561241857612417612031565b5b6124248582860161214e565b925050602083013567ffffffffffffffff81111561244557612444612031565b5b6124518582860161214e565b9150509250929050565b60006020820190508181036000830152612475818461229a565b905092915050565b60006040820190508181036000830152612497818561229a565b90506124a66020830184612236565b9392505050565b6000806000606084860312156124c6576124c561202c565b5b600084013567ffffffffffffffff8111156124e4576124e3612031565b5b6124f08682870161214e565b935050602084013567ffffffffffffffff81111561251157612510612031565b5b61251d8682870161214e565b925050604084013567ffffffffffffffff81111561253e5761253d612031565b5b61254a8682870161214e565b9150509250925092565b60008115159050919050565b61256981612554565b82525050565b60006020820190506125846000830184612560565b92915050565b600081519050919050565b600082825260208201905092915050565b6000819050602082019050919050565b6125bf81612224565b82525050565b6125ce81611fb5565b82525050565b600082825260208201905092915050565b60006125f082612254565b6125fa81856125d4565b935061260a818560208601612270565b61261381612040565b840191505092915050565b600060808301600083015161263660008601826125b6565b50602083015161264960208601826125c5565b506040830151848203604086015261266182826125e5565b9150506060830151848203606086015261267b82826125e5565b9150508091505092915050565b6000612694838361261e565b905092915050565b6000602082019050919050565b60006126b48261258a565b6126be8185612595565b9350836020820285016126d0856125a6565b8060005b8581101561270c57848403895281516126ed8582612688565b94506126f88361269c565b925060208a019950506001810190506126d4565b50829750879550505050505092915050565b6000602082019050818103600083015261273881846126a9565b905092915050565b60006060820190506127556000830186612245565b6127626020830185612245565b61276f6040830184612245565b949350505050565b600060208201905061278c6000830184612236565b92915050565b7f4e487b7100000000000000000000000000000000000000000000000000000000600052602260045260246000fd5b600060028204905060018216806127d957607f821691505b6020821081036127ec576127eb612792565b5b50919050565b7f4e6f2066756e647320746f207769746864726177000000000000000000000000600082015250565b600061282860148361225f565b9150612833826127f2565b602082019050919050565b600060208201905081810360008301526128578161281b565b9050919050565b600081905092915050565b600061287482612254565b61287e818561285e565b935061288e818560208601612270565b80840191505092915050565b60006128a68284612869565b915081905092915050565b600081905092915050565b50565b60006128cc6000836128b1565b91506128d7826128bc565b600082019050919050565b60006128ed826128bf565b9150819050919050565b7f5769746864726177616c206661696c6564000000000000000000000000000000600082015250565b600061292d60118361225f565b9150612938826128f7565b602082019050919050565b6000602082019050818103600083015261295c81612920565b9050919050565b7f4f6e6c792074686520757365722063616e20706572666f726d2074686973206160008201527f6374696f6e000000000000000000000000000000000000000000000000000000602082015250565b60006129bf60258361225f565b91506129ca82612963565b604082019050919050565b600060208201905081810360008301526129ee816129b2565b9050919050565b7f4e657720757365726e616d652063616e6e6f7420626520656d70747900000000600082015250565b6000612a2b601c8361225f565b9150612a36826129f5565b602082019050919050565b60006020820190508181036000830152612a5a81612a1e565b9050919050565b7f4e657720757365726e616d6520697320616c72656164792074616b656e000000600082015250565b6000612a97601d8361225f565b9150612aa282612a61565b602082019050919050565b60006020820190508181036000830152612ac681612a8a565b9050919050565b600081549050612adc816127c1565b9050919050565b60008190508160005260206000209050919050565b60006020601f8301049050919050565b600082821b905092915050565b600060088302612b457fffffffffffffffffffffffffffffffffffffffffffffffffffffffffffffffff82612b08565b612b4f8683612b08565b95508019841693508086168417925050509392505050565b6000819050919050565b6000612b8c612b87612b8284611fb5565b612b67565b611fb5565b9050919050565b6000819050919050565b612ba683612b71565b612bba612bb282612b93565b848454612b15565b825550505050565b600090565b612bcf612bc2565b612bda818484612b9d565b505050565b5b81811015612bfe57612bf3600082612bc7565b600181019050612be0565b5050565b601f821115612c4357612c1481612ae3565b612c1d84612af8565b81016020851015612c2c578190505b612c40612c3885612af8565b830182612bdf565b50505b505050565b600082821c905092915050565b6000612c6660001984600802612c48565b1980831691505092915050565b6000612c7f8383612c55565b9150826002028217905092915050565b818103612c9d575050612d75565b612ca682612acd565b67ffffffffffffffff811115612cbf57612cbe612051565b5b612cc982546127c1565b612cd4828285612c02565b6000601f831160018114612d035760008415612cf1578287015490505b612cfb8582612c73565b865550612d6e565b601f198416612d1187612ae3565b9650612d1c86612ae3565b60005b82811015612d4457848901548255600182019150600185019450602081019050612d1f565b86831015612d615784890154612d5d601f891682612c55565b8355505b6001600288020188555050505b5050505050505b565b612d8082612254565b67ffffffffffffffff811115612d9957612d98612051565b5b612da382546127c1565b612dae828285612c02565b600060209050601f831160018114612de15760008415612dcf578287015190505b612dd98582612c73565b865550612e41565b601f198416612def86612ae3565b60005b82811015612e1757848901518255600182019150602085019450602081019050612df2565b86831015612e345784890151612e30601f891682612c55565b8355505b6001600288020188555050505b505050505050565b7f4f6e6c792061646d696e2063616e20706572666f726d2074686973206163746960008201527f6f6e000000000000000000000000000000000000000000000000000000000000602082015250565b6000612ea560228361225f565b9150612eb082612e49565b604082019050919050565b60006020820190508181036000830152612ed481612e98565b9050919050565b60008154612ee8816127c1565b612ef2818661285e565b94506001821660008114612f0d5760018114612f2257612f55565b60ff1983168652811515820286019350612f55565b612f2b85612ae3565b60005b83811015612f4d57815481890152600182019150602081019050612f2e565b838801955050505b50505092915050565b6000612f6a8284612edb565b915081905092915050565b7f557365726e616d6520697320616c72656164792074616b656e00000000000000600082015250565b6000612fab60198361225f565b9150612fb682612f75565b602082019050919050565b60006020820190508181036000830152612fda81612f9e565b9050919050565b7f4164647265737320616c7265616479207265676973746572656420776974682060008201527f6120757365726e616d6500000000000000000000000000000000000000000000602082015250565b600061303d602a8361225f565b915061304882612fe1565b604082019050919050565b6000602082019050818103600083015261306c81613030565b9050919050565b7f526563697069656e74206e6f7420666f756e6400000000000000000000000000600082015250565b60006130a960138361225f565b91506130b482613073565b602082019050919050565b600060208201905081810360008301526130d88161309c565b9050919050565b7f446f6e6174696f6e206d7573742062652067726561746572207468616e207a6560008201527f726f000000000000000000000000000000000000000000000000000000000000602082015250565b600061313b60228361225f565b9150613146826130df565b604082019050919050565b6000602082019050818103600083015261316a8161312e565b9050919050565b7f4e487b7100000000000000000000000000000000000000000000000000000000600052601260045260246000fd5b60006131ab82611fb5565b91506131b683611fb5565b9250826131c6576131c5613171565b5b828206905092915050565b7f446f6e6174696f6e206d7573742062652061206d756c7469706c65206f66203060008201527f2e30303530352045544800000000000000000000000000000000000000000000602082015250565b600061322d602a8361225f565b9150613238826131d1565b604082019050919050565b6000602082019050818103600083015261325c81613220565b9050919050565b600061326e82611fb5565b915061327983611fb5565b925082820261328781611fb5565b9150828204841483151761329e5761329d611fbf565b5b5092915050565b60006132b082611fb5565b91506132bb83611fb5565b9250826132cb576132ca613171565b5b828204905092915050565b60006132e182611fb5565b91506132ec83611fb5565b925082820390508181111561330457613303611fbf565b5b92915050565b600060608201905061331f6000830186612245565b8181036020830152613331818561229a565b90508181036040830152613345818461229a565b905094935050505056fea2646970667358221220e0a034371a0e429daaccd69df1af3cd6634170ce5c02da894801f3f967d2cec464736f6c63430008180033",
  "linkReferences": {},
  "deployedLinkReferences": {}
}