{
  "_format": "hh-sol-artifact-1",
  "contractName": "XenEth",
  "sourceName": "contracts/XenEth.sol",
  "abi": [
    {
      "inputs": [],
      "stateMutability": "nonpayable",
      "type": "constructor"
    },
    {
      "anonymous": false,
      "inputs": [
        {
          "indexed": true,
          "internalType": "string",
          "name": "recipientId",
          "type": "string"
        },
        {
          "indexed": true,
          "internalType": "address",
          "name": "donor",
          "type": "address"
        },
        {
          "indexed": false,
          "internalType": "uint256",
          "name": "amount",
          "type": "uint256"
        },
        {
          "indexed": false,
          "internalType": "string",
          "name": "message",
          "type": "string"
        },
        {
          "indexed": false,
          "internalType": "string",
          "name": "donorName",
          "type": "string"
        }
      ],
      "name": "DonationReceived",
      "type": "event"
    },
    {
      "inputs": [
        {
          "internalType": "address",
          "name": "",
          "type": "address"
        }
      ],
      "name": "addressToName",
      "outputs": [
        {
          "internalType": "string",
          "name": "",
          "type": "string"
        }
      ],
      "stateMutability": "view",
      "type": "function"
    },
    {
      "inputs": [],
      "name": "admin",
      "outputs": [
        {
          "internalType": "address",
          "name": "",
          "type": "address"
        }
      ],
      "stateMutability": "view",
      "type": "function"
    },
    {
      "inputs": [
        {
          "internalType": "address",
          "name": "",
          "type": "address"
        }
      ],
      "name": "balances",
      "outputs": [
        {
          "internalType": "uint256",
          "name": "",
          "type": "uint256"
        }
      ],
      "stateMutability": "view",
      "type": "function"
    },
    {
      "inputs": [
        {
          "internalType": "string",
          "name": "oldName",
          "type": "string"
        },
        {
          "internalType": "string",
          "name": "newName",
          "type": "string"
        }
      ],
      "name": "changeUserName",
      "outputs": [],
      "stateMutability": "nonpayable",
      "type": "function"
    },
    {
      "inputs": [
        {
          "internalType": "string",
          "name": "recipientId",
          "type": "string"
        },
        {
          "internalType": "string",
          "name": "message",
          "type": "string"
        },
        {
          "internalType": "string",
          "name": "donorName",
          "type": "string"
        }
      ],
      "name": "donate",
      "outputs": [],
      "stateMutability": "payable",
      "type": "function"
    },
    {
      "inputs": [
        {
          "internalType": "string",
          "name": "",
          "type": "string"
        },
        {
          "internalType": "uint256",
          "name": "",
          "type": "uint256"
        }
      ],
      "name": "donations",
      "outputs": [
        {
          "internalType": "address",
          "name": "donor",
          "type": "address"
        },
        {
          "internalType": "uint256",
          "name": "amount",
          "type": "uint256"
        },
        {
          "internalType": "string",
          "name": "message",
          "type": "string"
        },
        {
          "internalType": "string",
          "name": "donorName",
          "type": "string"
        }
      ],
      "stateMutability": "view",
      "type": "function"
    },
    {
      "inputs": [
        {
          "internalType": "address",
          "name": "recipientAddress",
          "type": "address"
        }
      ],
      "name": "getAvailableBalance",
      "outputs": [
        {
          "internalType": "uint256",
          "name": "",
          "type": "uint256"
        }
      ],
      "stateMutability": "view",
      "type": "function"
    },
    {
      "inputs": [
        {
          "internalType": "string",
          "name": "recipientId",
          "type": "string"
        }
      ],
      "name": "getAvailableBalanceByRecipientId",
      "outputs": [
        {
          "internalType": "uint256",
          "name": "",
          "type": "uint256"
        }
      ],
      "stateMutability": "view",
      "type": "function"
    },
    {
      "inputs": [
        {
          "internalType": "address",
          "name": "userAddress",
          "type": "address"
        }
      ],
      "name": "getDonationsByAddress",
      "outputs": [
        {
          "components": [
            {
              "internalType": "address",
              "name": "donor",
              "type": "address"
            },
            {
              "internalType": "uint256",
              "name": "amount",
              "type": "uint256"
            },
            {
              "internalType": "string",
              "name": "message",
              "type": "string"
            },
            {
              "internalType": "string",
              "name": "donorName",
              "type": "string"
            }
          ],
          "internalType": "struct XenEth.Donation[]",
          "name": "",
          "type": "tuple[]"
        }
      ],
      "stateMutability": "view",
      "type": "function"
    },
    {
      "inputs": [
        {
          "internalType": "address",
          "name": "recipientAddress",
          "type": "address"
        }
      ],
      "name": "getTotalDonations",
      "outputs": [
        {
          "internalType": "uint256",
          "name": "",
          "type": "uint256"
        }
      ],
      "stateMutability": "view",
      "type": "function"
    },
    {
      "inputs": [
        {
          "internalType": "string",
          "name": "recipientId",
          "type": "string"
        }
      ],
      "name": "getTotalDonationsByRecipientId",
      "outputs": [
        {
          "internalType": "uint256",
          "name": "",
          "type": "uint256"
        }
      ],
      "stateMutability": "view",
      "type": "function"
    },
    {
      "inputs": [],
      "name": "getUserInfo",
      "outputs": [
        {
          "internalType": "string",
          "name": "",
          "type": "string"
        }
      ],
      "stateMutability": "view",
      "type": "function"
    },
    {
      "inputs": [
        {
          "internalType": "address",
          "name": "recipientAddress",
          "type": "address"
        }
      ],
      "name": "getWithdrawnDonations",
      "outputs": [
        {
          "internalType": "uint256",
          "name": "",
          "type": "uint256"
        }
      ],
      "stateMutability": "view",
      "type": "function"
    },
    {
      "inputs": [
        {
          "internalType": "string",
          "name": "recipientId",
          "type": "string"
        }
      ],
      "name": "getWithdrawnDonationsByRecipientId",
      "outputs": [
        {
          "internalType": "uint256",
          "name": "",
          "type": "uint256"
        }
      ],
      "stateMutability": "view",
      "type": "function"
    },
    {
      "inputs": [
        {
          "internalType": "string",
          "name": "name",
          "type": "string"
        }
      ],
      "name": "registerUser",
      "outputs": [],
      "stateMutability": "nonpayable",
      "type": "function"
    },
    {
      "inputs": [
        {
          "internalType": "string",
          "name": "",
          "type": "string"
        }
      ],
      "name": "totalDonations",
      "outputs": [
        {
          "internalType": "uint256",
          "name": "",
          "type": "uint256"
        }
      ],
      "stateMutability": "view",
      "type": "function"
    },
    {
      "inputs": [
        {
          "internalType": "string",
          "name": "",
          "type": "string"
        }
      ],
      "name": "users",
      "outputs": [
        {
          "internalType": "string",
          "name": "name",
          "type": "string"
        },
        {
          "internalType": "address",
          "name": "userAddress",
          "type": "address"
        }
      ],
      "stateMutability": "view",
      "type": "function"
    },
    {
      "inputs": [],
      "name": "withdraw",
      "outputs": [],
      "stateMutability": "nonpayable",
      "type": "function"
    },
    {
      "inputs": [],
      "name": "withdrawFees",
      "outputs": [],
      "stateMutability": "nonpayable",
      "type": "function"
    },
    {
      "inputs": [
        {
          "internalType": "string",
          "name": "",
          "type": "string"
        }
      ],
      "name": "withdrawnDonations",
      "outputs": [
        {
          "internalType": "uint256",
          "name": "",
          "type": "uint256"
        }
      ],
      "stateMutability": "view",
      "type": "function"
    },
    {
      "stateMutability": "payable",
      "type": "receive"
    }
  ],
  "bytecode": "0x608060405234801561001057600080fd5b50336000806101000a81548173ffffffffffffffffffffffffffffffffffffffff021916908373ffffffffffffffffffffffffffffffffffffffff1602179055506131d4806100606000396000f3fe6080604052600436106101235760003560e01c80635d8d1585116100a05780638bf20649116100645780638bf20649146104b65780639c9c2a0f146104d2578063af78999a1461050f578063e2a04b621461054c578063f851a44014610589576101a0565b80635d8d1585146103aa578063689e1c03146103d55780636c24a76f14610413578063704f1b941461045057806372dc65fd14610479576101a0565b80633ccfd60b116100e75780633ccfd60b146102d95780633ebed174146102f057806346318fd21461032d578063476343ee146103565780634a7dc3591461036d576101a0565b8063115ac45a146101a55780631b75e57c146101e25780631c1398d21461021f57806327e235e31461025f57806333624b3e1461029c576101a0565b366101a05734600360008060009054906101000a900473ffffffffffffffffffffffffffffffffffffffff1673ffffffffffffffffffffffffffffffffffffffff1673ffffffffffffffffffffffffffffffffffffffff16815260200190815260200160002060008282546101989190611f6d565b925050819055005b600080fd5b3480156101b157600080fd5b506101cc60048036038101906101c79190612013565b6105b4565b6040516101d9919061204f565b60405180910390f35b3480156101ee57600080fd5b50610209600480360381019061020491906121b0565b6106a8565b604051610216919061204f565b60405180910390f35b34801561022b57600080fd5b5061024660048036038101906102419190612225565b6106d0565b604051610256949392919061230f565b60405180910390f35b34801561026b57600080fd5b5061028660048036038101906102819190612013565b610863565b604051610293919061204f565b60405180910390f35b3480156102a857600080fd5b506102c360048036038101906102be9190612013565b61087b565b6040516102d0919061204f565b60405180910390f35b3480156102e557600080fd5b506102ee61096f565b005b3480156102fc57600080fd5b50610317600480360381019061031291906121b0565b610bed565b604051610324919061204f565b60405180910390f35b34801561033957600080fd5b50610354600480360381019061034f9190612362565b610c1b565b005b34801561036257600080fd5b5061036b610f94565b005b34801561037957600080fd5b50610394600480360381019061038f91906121b0565b611201565b6040516103a1919061204f565b60405180910390f35b3480156103b657600080fd5b506103bf61122f565b6040516103cc91906123da565b60405180910390f35b3480156103e157600080fd5b506103fc60048036038101906103f791906121b0565b61131e565b60405161040a9291906123fc565b60405180910390f35b34801561041f57600080fd5b5061043a60048036038101906104359190612013565b611400565b604051610447919061204f565b60405180910390f35b34801561045c57600080fd5b50610477600480360381019061047291906121b0565b611449565b005b34801561048557600080fd5b506104a0600480360381019061049b91906121b0565b611680565b6040516104ad919061204f565b60405180910390f35b6104d060048036038101906104cb919061242c565b61170a565b005b3480156104de57600080fd5b506104f960048036038101906104f49190612013565b611ad9565b6040516105069190612667565b60405180910390f35b34801561051b57600080fd5b50610536600480360381019061053191906121b0565b611deb565b604051610543919061204f565b60405180910390f35b34801561055857600080fd5b50610573600480360381019061056e9190612013565b611e13565b60405161058091906123da565b60405180910390f35b34801561059557600080fd5b5061059e611eb3565b6040516105ab9190612689565b60405180910390f35b600080600260008473ffffffffffffffffffffffffffffffffffffffff1673ffffffffffffffffffffffffffffffffffffffff1681526020019081526020016000208054610601906126d3565b80601f016020809104026020016040519081016040528092919081815260200182805461062d906126d3565b801561067a5780601f1061064f5761010080835404028352916020019161067a565b820191906000526020600020905b81548152906001019060200180831161065d57829003601f168201915b505050505090506005816040516106919190612740565b908152602001604051809103902054915050919050565b60006005826040516106ba9190612740565b9081526020016040518091039020549050919050565b600482805160208101820180518482526020830160208501208183528095505050505050818154811061070257600080fd5b9060005260206000209060040201600091509150508060000160009054906101000a900473ffffffffffffffffffffffffffffffffffffffff1690806001015490806002018054610752906126d3565b80601f016020809104026020016040519081016040528092919081815260200182805461077e906126d3565b80156107cb5780601f106107a0576101008083540402835291602001916107cb565b820191906000526020600020905b8154815290600101906020018083116107ae57829003601f168201915b5050505050908060030180546107e0906126d3565b80601f016020809104026020016040519081016040528092919081815260200182805461080c906126d3565b80156108595780601f1061082e57610100808354040283529160200191610859565b820191906000526020600020905b81548152906001019060200180831161083c57829003601f168201915b5050505050905084565b60036020528060005260406000206000915090505481565b600080600260008473ffffffffffffffffffffffffffffffffffffffff1673ffffffffffffffffffffffffffffffffffffffff16815260200190815260200160002080546108c8906126d3565b80601f01602080910402602001604051908101604052809291908181526020018280546108f4906126d3565b80156109415780601f1061091657610100808354040283529160200191610941565b820191906000526020600020905b81548152906001019060200180831161092457829003601f168201915b505050505090506006816040516109589190612740565b908152602001604051809103902054915050919050565b6000600360003373ffffffffffffffffffffffffffffffffffffffff1673ffffffffffffffffffffffffffffffffffffffff168152602001908152602001600020549050600081116109f6576040517f08c379a00000000000000000000000000000000000000000000000000000000081526004016109ed906127a3565b60405180910390fd5b6000600260003373ffffffffffffffffffffffffffffffffffffffff1673ffffffffffffffffffffffffffffffffffffffff1681526020019081526020016000208054610a42906126d3565b80601f0160208091040260200160405190810160405280929190818152602001828054610a6e906126d3565b8015610abb5780601f10610a9057610100808354040283529160200191610abb565b820191906000526020600020905b815481529060010190602001808311610a9e57829003601f168201915b5050505050905081600682604051610ad39190612740565b90815260200160405180910390206000828254610af09190611f6d565b925050819055506000600360003373ffffffffffffffffffffffffffffffffffffffff1673ffffffffffffffffffffffffffffffffffffffff1681526020019081526020016000208190555060003373ffffffffffffffffffffffffffffffffffffffff1683604051610b62906127f4565b60006040518083038185875af1925050503d8060008114610b9f576040519150601f19603f3d011682016040523d82523d6000602084013e610ba4565b606091505b5050905080610be8576040517f08c379a0000000000000000000000000000000000000000000000000000000008152600401610bdf90612855565b60405180910390fd5b505050565b6006818051602081018201805184825260208301602085012081835280955050505050506000915090505481565b813373ffffffffffffffffffffffffffffffffffffffff16600182604051610c439190612740565b908152602001604051809103902060010160009054906101000a900473ffffffffffffffffffffffffffffffffffffffff1673ffffffffffffffffffffffffffffffffffffffff1614610ccb576040517f08c379a0000000000000000000000000000000000000000000000000000000008152600401610cc2906128e7565b60405180910390fd5b6000825111610d0f576040517f08c379a0000000000000000000000000000000000000000000000000000000008152600401610d0690612953565b60405180910390fd5b600073ffffffffffffffffffffffffffffffffffffffff16600183604051610d379190612740565b908152602001604051809103902060010160009054906101000a900473ffffffffffffffffffffffffffffffffffffffff1673ffffffffffffffffffffffffffffffffffffffff1614610dbf576040517f08c379a0000000000000000000000000000000000000000000000000000000008152600401610db6906129bf565b60405180910390fd5b600183604051610dcf9190612740565b9081526020016040518091039020600183604051610ded9190612740565b908152602001604051809103902060008201816000019081610e0f9190612ba1565b506001820160009054906101000a900473ffffffffffffffffffffffffffffffffffffffff168160010160006101000a81548173ffffffffffffffffffffffffffffffffffffffff021916908373ffffffffffffffffffffffffffffffffffffffff16021790555090505081600183604051610e8b9190612740565b90815260200160405180910390206000019081610ea89190612c89565b508160026000600186604051610ebe9190612740565b908152602001604051809103902060010160009054906101000a900473ffffffffffffffffffffffffffffffffffffffff1673ffffffffffffffffffffffffffffffffffffffff1673ffffffffffffffffffffffffffffffffffffffff1681526020019081526020016000209081610f369190612c89565b50600183604051610f479190612740565b908152602001604051809103902060008082016000610f669190611ed7565b6001820160006101000a81549073ffffffffffffffffffffffffffffffffffffffff02191690555050505050565b60008054906101000a900473ffffffffffffffffffffffffffffffffffffffff1673ffffffffffffffffffffffffffffffffffffffff163373ffffffffffffffffffffffffffffffffffffffff1614611022576040517f08c379a000000000000000000000000000000000000000000000000000000000815260040161101990612dcd565b60405180910390fd5b6000600360008060009054906101000a900473ffffffffffffffffffffffffffffffffffffffff1673ffffffffffffffffffffffffffffffffffffffff1673ffffffffffffffffffffffffffffffffffffffff168152602001908152602001600020549050600081116110ca576040517f08c379a00000000000000000000000000000000000000000000000000000000081526004016110c1906127a3565b60405180910390fd5b6000600360008060009054906101000a900473ffffffffffffffffffffffffffffffffffffffff1673ffffffffffffffffffffffffffffffffffffffff1673ffffffffffffffffffffffffffffffffffffffff1681526020019081526020016000208190555060008060009054906101000a900473ffffffffffffffffffffffffffffffffffffffff1673ffffffffffffffffffffffffffffffffffffffff1682604051611177906127f4565b60006040518083038185875af1925050503d80600081146111b4576040519150601f19603f3d011682016040523d82523d6000602084013e6111b9565b606091505b50509050806111fd576040517f08c379a00000000000000000000000000000000000000000000000000000000081526004016111f490612855565b60405180910390fd5b5050565b6005818051602081018201805184825260208301602085012081835280955050505050506000915090505481565b60606001600260003373ffffffffffffffffffffffffffffffffffffffff1673ffffffffffffffffffffffffffffffffffffffff16815260200190815260200160002060405161127f9190612e70565b9081526020016040518091039020600001805461129b906126d3565b80601f01602080910402602001604051908101604052809291908181526020018280546112c7906126d3565b80156113145780601f106112e957610100808354040283529160200191611314565b820191906000526020600020905b8154815290600101906020018083116112f757829003601f168201915b5050505050905090565b600181805160208101820180518482526020830160208501208183528095505050505050600091509050806000018054611357906126d3565b80601f0160208091040260200160405190810160405280929190818152602001828054611383906126d3565b80156113d05780601f106113a5576101008083540402835291602001916113d0565b820191906000526020600020905b8154815290600101906020018083116113b357829003601f168201915b5050505050908060010160009054906101000a900473ffffffffffffffffffffffffffffffffffffffff16905082565b6000600360008373ffffffffffffffffffffffffffffffffffffffff1673ffffffffffffffffffffffffffffffffffffffff168152602001908152602001600020549050919050565b600073ffffffffffffffffffffffffffffffffffffffff166001826040516114719190612740565b908152602001604051809103902060010160009054906101000a900473ffffffffffffffffffffffffffffffffffffffff1673ffffffffffffffffffffffffffffffffffffffff16146114f9576040517f08c379a00000000000000000000000000000000000000000000000000000000081526004016114f090612ed3565b60405180910390fd5b6000600260003373ffffffffffffffffffffffffffffffffffffffff1673ffffffffffffffffffffffffffffffffffffffff1681526020019081526020016000208054611545906126d3565b905014611587576040517f08c379a000000000000000000000000000000000000000000000000000000000815260040161157e90612f65565b60405180910390fd5b60405180604001604052808281526020013373ffffffffffffffffffffffffffffffffffffffff168152506001826040516115c29190612740565b908152602001604051809103902060008201518160000190816115e59190612c89565b5060208201518160010160006101000a81548173ffffffffffffffffffffffffffffffffffffffff021916908373ffffffffffffffffffffffffffffffffffffffff16021790555090505080600260003373ffffffffffffffffffffffffffffffffffffffff1673ffffffffffffffffffffffffffffffffffffffff168152602001908152602001600020908161167c9190612c89565b5050565b6000600360006001846040516116969190612740565b908152602001604051809103902060010160009054906101000a900473ffffffffffffffffffffffffffffffffffffffff1673ffffffffffffffffffffffffffffffffffffffff1673ffffffffffffffffffffffffffffffffffffffff168152602001908152602001600020549050919050565b600073ffffffffffffffffffffffffffffffffffffffff166001846040516117329190612740565b908152602001604051809103902060010160009054906101000a900473ffffffffffffffffffffffffffffffffffffffff1673ffffffffffffffffffffffffffffffffffffffff16036117ba576040517f08c379a00000000000000000000000000000000000000000000000000000000081526004016117b190612fd1565b60405180910390fd5b600034116117fd576040517f08c379a00000000000000000000000000000000000000000000000000000000081526004016117f490613063565b60405180910390fd5b6000606560013461180e9190613083565b61181891906130f4565b9050600081346118289190613125565b905081600360008060009054906101000a900473ffffffffffffffffffffffffffffffffffffffff1673ffffffffffffffffffffffffffffffffffffffff1673ffffffffffffffffffffffffffffffffffffffff168152602001908152602001600020600082825461189a9190611f6d565b9250508190555080600360006001886040516118b69190612740565b908152602001604051809103902060010160009054906101000a900473ffffffffffffffffffffffffffffffffffffffff1673ffffffffffffffffffffffffffffffffffffffff1673ffffffffffffffffffffffffffffffffffffffff16815260200190815260200160002060008282546119319190611f6d565b925050819055506004856040516119489190612740565b908152602001604051809103902060405180608001604052803373ffffffffffffffffffffffffffffffffffffffff16815260200183815260200186815260200185815250908060018154018082558091505060019003906000526020600020906004020160009091909190915060008201518160000160006101000a81548173ffffffffffffffffffffffffffffffffffffffff021916908373ffffffffffffffffffffffffffffffffffffffff160217905550602082015181600101556040820151816002019081611a1c9190612c89565b506060820151816003019081611a329190612c89565b50505034600586604051611a469190612740565b90815260200160405180910390206000828254611a639190611f6d565b925050819055503373ffffffffffffffffffffffffffffffffffffffff1685604051611a8f9190612740565b60405180910390207f309b8aed41b67a26b5e8ca7ee23aad93e2da08562af749736203253fc9a32658838787604051611aca93929190613159565b60405180910390a35050505050565b60606000600260008473ffffffffffffffffffffffffffffffffffffffff1673ffffffffffffffffffffffffffffffffffffffff1681526020019081526020016000208054611b27906126d3565b80601f0160208091040260200160405190810160405280929190818152602001828054611b53906126d3565b8015611ba05780601f10611b7557610100808354040283529160200191611ba0565b820191906000526020600020905b815481529060010190602001808311611b8357829003601f168201915b505050505090506000815111611beb576040517f08c379a0000000000000000000000000000000000000000000000000000000008152600401611be290612fd1565b60405180910390fd5b600481604051611bfb9190612740565b9081526020016040518091039020805480602002602001604051908101604052809291908181526020016000905b82821015611ddf57838290600052602060002090600402016040518060800160405290816000820160009054906101000a900473ffffffffffffffffffffffffffffffffffffffff1673ffffffffffffffffffffffffffffffffffffffff1673ffffffffffffffffffffffffffffffffffffffff16815260200160018201548152602001600282018054611cbc906126d3565b80601f0160208091040260200160405190810160405280929190818152602001828054611ce8906126d3565b8015611d355780601f10611d0a57610100808354040283529160200191611d35565b820191906000526020600020905b815481529060010190602001808311611d1857829003601f168201915b50505050508152602001600382018054611d4e906126d3565b80601f0160208091040260200160405190810160405280929190818152602001828054611d7a906126d3565b8015611dc75780601f10611d9c57610100808354040283529160200191611dc7565b820191906000526020600020905b815481529060010190602001808311611daa57829003601f168201915b50505050508152505081526020019060010190611c29565b50505050915050919050565b6000600682604051611dfd9190612740565b9081526020016040518091039020549050919050565b60026020528060005260406000206000915090508054611e32906126d3565b80601f0160208091040260200160405190810160405280929190818152602001828054611e5e906126d3565b8015611eab5780601f10611e8057610100808354040283529160200191611eab565b820191906000526020600020905b815481529060010190602001808311611e8e57829003601f168201915b505050505081565b60008054906101000a900473ffffffffffffffffffffffffffffffffffffffff1681565b508054611ee3906126d3565b6000825580601f10611ef55750611f14565b601f016020900490600052602060002090810190611f139190611f17565b5b50565b5b80821115611f30576000816000905550600101611f18565b5090565b6000819050919050565b7f4e487b7100000000000000000000000000000000000000000000000000000000600052601160045260246000fd5b6000611f7882611f34565b9150611f8383611f34565b9250828201905080821115611f9b57611f9a611f3e565b5b92915050565b6000604051905090565b600080fd5b600080fd5b600073ffffffffffffffffffffffffffffffffffffffff82169050919050565b6000611fe082611fb5565b9050919050565b611ff081611fd5565b8114611ffb57600080fd5b50565b60008135905061200d81611fe7565b92915050565b60006020828403121561202957612028611fab565b5b600061203784828501611ffe565b91505092915050565b61204981611f34565b82525050565b60006020820190506120646000830184612040565b92915050565b600080fd5b600080fd5b6000601f19601f8301169050919050565b7f4e487b7100000000000000000000000000000000000000000000000000000000600052604160045260246000fd5b6120bd82612074565b810181811067ffffffffffffffff821117156120dc576120db612085565b5b80604052505050565b60006120ef611fa1565b90506120fb82826120b4565b919050565b600067ffffffffffffffff82111561211b5761211a612085565b5b61212482612074565b9050602081019050919050565b82818337600083830152505050565b600061215361214e84612100565b6120e5565b90508281526020810184848401111561216f5761216e61206f565b5b61217a848285612131565b509392505050565b600082601f8301126121975761219661206a565b5b81356121a7848260208601612140565b91505092915050565b6000602082840312156121c6576121c5611fab565b5b600082013567ffffffffffffffff8111156121e4576121e3611fb0565b5b6121f084828501612182565b91505092915050565b61220281611f34565b811461220d57600080fd5b50565b60008135905061221f816121f9565b92915050565b6000806040838503121561223c5761223b611fab565b5b600083013567ffffffffffffffff81111561225a57612259611fb0565b5b61226685828601612182565b925050602061227785828601612210565b9150509250929050565b61228a81611fd5565b82525050565b600081519050919050565b600082825260208201905092915050565b60005b838110156122ca5780820151818401526020810190506122af565b60008484015250505050565b60006122e182612290565b6122eb818561229b565b93506122fb8185602086016122ac565b61230481612074565b840191505092915050565b60006080820190506123246000830187612281565b6123316020830186612040565b818103604083015261234381856122d6565b9050818103606083015261235781846122d6565b905095945050505050565b6000806040838503121561237957612378611fab565b5b600083013567ffffffffffffffff81111561239757612396611fb0565b5b6123a385828601612182565b925050602083013567ffffffffffffffff8111156123c4576123c3611fb0565b5b6123d085828601612182565b9150509250929050565b600060208201905081810360008301526123f481846122d6565b905092915050565b6000604082019050818103600083015261241681856122d6565b90506124256020830184612281565b9392505050565b60008060006060848603121561244557612444611fab565b5b600084013567ffffffffffffffff81111561246357612462611fb0565b5b61246f86828701612182565b935050602084013567ffffffffffffffff8111156124905761248f611fb0565b5b61249c86828701612182565b925050604084013567ffffffffffffffff8111156124bd576124bc611fb0565b5b6124c986828701612182565b9150509250925092565b600081519050919050565b600082825260208201905092915050565b6000819050602082019050919050565b61250881611fd5565b82525050565b61251781611f34565b82525050565b600082825260208201905092915050565b600061253982612290565b612543818561251d565b93506125538185602086016122ac565b61255c81612074565b840191505092915050565b600060808301600083015161257f60008601826124ff565b506020830151612592602086018261250e565b50604083015184820360408601526125aa828261252e565b915050606083015184820360608601526125c4828261252e565b9150508091505092915050565b60006125dd8383612567565b905092915050565b6000602082019050919050565b60006125fd826124d3565b61260781856124de565b935083602082028501612619856124ef565b8060005b85811015612655578484038952815161263685826125d1565b9450612641836125e5565b925060208a0199505060018101905061261d565b50829750879550505050505092915050565b6000602082019050818103600083015261268181846125f2565b905092915050565b600060208201905061269e6000830184612281565b92915050565b7f4e487b7100000000000000000000000000000000000000000000000000000000600052602260045260246000fd5b600060028204905060018216806126eb57607f821691505b6020821081036126fe576126fd6126a4565b5b50919050565b600081905092915050565b600061271a82612290565b6127248185612704565b93506127348185602086016122ac565b80840191505092915050565b600061274c828461270f565b915081905092915050565b7f4e6f2066756e647320746f207769746864726177000000000000000000000000600082015250565b600061278d60148361229b565b915061279882612757565b602082019050919050565b600060208201905081810360008301526127bc81612780565b9050919050565b600081905092915050565b50565b60006127de6000836127c3565b91506127e9826127ce565b600082019050919050565b60006127ff826127d1565b9150819050919050565b7f5769746864726177616c206661696c6564000000000000000000000000000000600082015250565b600061283f60118361229b565b915061284a82612809565b602082019050919050565b6000602082019050818103600083015261286e81612832565b9050919050565b7f4f6e6c792074686520757365722063616e20706572666f726d2074686973206160008201527f6374696f6e000000000000000000000000000000000000000000000000000000602082015250565b60006128d160258361229b565b91506128dc82612875565b604082019050919050565b60006020820190508181036000830152612900816128c4565b9050919050565b7f4e657720757365726e616d652063616e6e6f7420626520656d70747900000000600082015250565b600061293d601c8361229b565b915061294882612907565b602082019050919050565b6000602082019050818103600083015261296c81612930565b9050919050565b7f4e657720757365726e616d6520697320616c72656164792074616b656e000000600082015250565b60006129a9601d8361229b565b91506129b482612973565b602082019050919050565b600060208201905081810360008301526129d88161299c565b9050919050565b6000815490506129ee816126d3565b9050919050565b60008190508160005260206000209050919050565b60006020601f8301049050919050565b600082821b905092915050565b600060088302612a577fffffffffffffffffffffffffffffffffffffffffffffffffffffffffffffffff82612a1a565b612a618683612a1a565b95508019841693508086168417925050509392505050565b6000819050919050565b6000612a9e612a99612a9484611f34565b612a79565b611f34565b9050919050565b6000819050919050565b612ab883612a83565b612acc612ac482612aa5565b848454612a27565b825550505050565b600090565b612ae1612ad4565b612aec818484612aaf565b505050565b5b81811015612b1057612b05600082612ad9565b600181019050612af2565b5050565b601f821115612b5557612b26816129f5565b612b2f84612a0a565b81016020851015612b3e578190505b612b52612b4a85612a0a565b830182612af1565b50505b505050565b600082821c905092915050565b6000612b7860001984600802612b5a565b1980831691505092915050565b6000612b918383612b67565b9150826002028217905092915050565b818103612baf575050612c87565b612bb8826129df565b67ffffffffffffffff811115612bd157612bd0612085565b5b612bdb82546126d3565b612be6828285612b14565b6000601f831160018114612c155760008415612c03578287015490505b612c0d8582612b85565b865550612c80565b601f198416612c23876129f5565b9650612c2e866129f5565b60005b82811015612c5657848901548255600182019150600185019450602081019050612c31565b86831015612c735784890154612c6f601f891682612b67565b8355505b6001600288020188555050505b5050505050505b565b612c9282612290565b67ffffffffffffffff811115612cab57612caa612085565b5b612cb582546126d3565b612cc0828285612b14565b600060209050601f831160018114612cf35760008415612ce1578287015190505b612ceb8582612b85565b865550612d53565b601f198416612d01866129f5565b60005b82811015612d2957848901518255600182019150602085019450602081019050612d04565b86831015612d465784890151612d42601f891682612b67565b8355505b6001600288020188555050505b505050505050565b7f4f6e6c792061646d696e2063616e20706572666f726d2074686973206163746960008201527f6f6e000000000000000000000000000000000000000000000000000000000000602082015250565b6000612db760228361229b565b9150612dc282612d5b565b604082019050919050565b60006020820190508181036000830152612de681612daa565b9050919050565b60008154612dfa816126d3565b612e048186612704565b94506001821660008114612e1f5760018114612e3457612e67565b60ff1983168652811515820286019350612e67565b612e3d856129f5565b60005b83811015612e5f57815481890152600182019150602081019050612e40565b838801955050505b50505092915050565b6000612e7c8284612ded565b915081905092915050565b7f557365726e616d6520697320616c72656164792074616b656e00000000000000600082015250565b6000612ebd60198361229b565b9150612ec882612e87565b602082019050919050565b60006020820190508181036000830152612eec81612eb0565b9050919050565b7f4164647265737320616c7265616479207265676973746572656420776974682060008201527f6120757365726e616d6500000000000000000000000000000000000000000000602082015250565b6000612f4f602a8361229b565b9150612f5a82612ef3565b604082019050919050565b60006020820190508181036000830152612f7e81612f42565b9050919050565b7f526563697069656e74206e6f7420666f756e6400000000000000000000000000600082015250565b6000612fbb60138361229b565b9150612fc682612f85565b602082019050919050565b60006020820190508181036000830152612fea81612fae565b9050919050565b7f446f6e6174696f6e206d7573742062652067726561746572207468616e207a6560008201527f726f000000000000000000000000000000000000000000000000000000000000602082015250565b600061304d60228361229b565b915061305882612ff1565b604082019050919050565b6000602082019050818103600083015261307c81613040565b9050919050565b600061308e82611f34565b915061309983611f34565b92508282026130a781611f34565b915082820484148315176130be576130bd611f3e565b5b5092915050565b7f4e487b7100000000000000000000000000000000000000000000000000000000600052601260045260246000fd5b60006130ff82611f34565b915061310a83611f34565b92508261311a576131196130c5565b5b828204905092915050565b600061313082611f34565b915061313b83611f34565b925082820390508181111561315357613152611f3e565b5b92915050565b600060608201905061316e6000830186612040565b818103602083015261318081856122d6565b9050818103604083015261319481846122d6565b905094935050505056fea2646970667358221220e630fdeace1caf07c0e7c6d076fc176b71a28302dc4ea8c8cffa5841843d5e5464736f6c63430008180033",
  "linkReferences": {},
  "deployedLinkReferences": {}
}